{"abi":[{"type":"constructor","inputs":[{"name":"_minter","type":"address","internalType":"address"}],"stateMutability":"nonpayable"},{"type":"function","name":"balanceOf","inputs":[{"name":"","type":"address","internalType":"address"}],"outputs":[{"name":"","type":"uint256","internalType":"uint256"}],"stateMutability":"view"},{"type":"function","name":"burn","inputs":[{"name":"from","type":"address","internalType":"address"},{"name":"amount","type":"uint256","internalType":"uint256"}],"outputs":[],"stateMutability":"nonpayable"},{"type":"function","name":"decimals","inputs":[],"outputs":[{"name":"","type":"uint8","internalType":"uint8"}],"stateMutability":"view"},{"type":"function","name":"mint","inputs":[{"name":"to","type":"address","internalType":"address"},{"name":"amount","type":"uint256","internalType":"uint256"}],"outputs":[],"stateMutability":"nonpayable"},{"type":"function","name":"minter","inputs":[],"outputs":[{"name":"","type":"address","internalType":"address"}],"stateMutability":"view"},{"type":"function","name":"name","inputs":[],"outputs":[{"name":"","type":"string","internalType":"string"}],"stateMutability":"view"},{"type":"function","name":"setMinter","inputs":[{"name":"_minter","type":"address","internalType":"address"}],"outputs":[],"stateMutability":"nonpayable"},{"type":"function","name":"symbol","inputs":[],"outputs":[{"name":"","type":"string","internalType":"string"}],"stateMutability":"view"},{"type":"function","name":"transfer","inputs":[{"name":"","type":"address","internalType":"address"},{"name":"","type":"uint256","internalType":"uint256"}],"outputs":[{"name":"","type":"bool","internalType":"bool"}],"stateMutability":"pure"},{"type":"event","name":"MinterUpdated","inputs":[{"name":"oldMinter","type":"address","indexed":true,"internalType":"address"},{"name":"newMinter","type":"address","indexed":true,"internalType":"address"}],"anonymous":false},{"type":"event","name":"Transfer","inputs":[{"name":"from","type":"address","indexed":true,"internalType":"address"},{"name":"to","type":"address","indexed":true,"internalType":"address"},{"name":"value","type":"uint256","indexed":false,"internalType":"uint256"}],"anonymous":false}],"bytecode":{"object":"0x6080604052348015600f57600080fd5b506040516105fb3803806105fb833981016040819052602c916050565b600080546001600160a01b0319166001600160a01b0392909216919091179055607e565b600060208284031215606157600080fd5b81516001600160a01b0381168114607757600080fd5b9392505050565b61056e8061008d6000396000f3fe608060405234801561001057600080fd5b50600436106100935760003560e01c806370a082311161006657806370a082311461013257806395d89b41146101605780639dc29fac14610185578063a9059cbb14610198578063fca3b5aa146101bb57600080fd5b806306fdde031461009857806307546172146100d8578063313ce5671461010357806340c10f191461011d575b600080fd5b6100c26040518060400160405280600b81526020016a48756e7420506f696e747360a81b81525081565b6040516100cf919061041c565b60405180910390f35b6000546100eb906001600160a01b031681565b6040516001600160a01b0390911681526020016100cf565b61010b600081565b60405160ff90911681526020016100cf565b61013061012b366004610486565b6101ce565b005b6101526101403660046104b0565b60016020526000908152604090205481565b6040519081526020016100cf565b6100c260405180604001604052806006815260200165121413d2539560d21b81525081565b610130610193366004610486565b610274565b6101ab6101a6366004610486565b610360565b60405190151581526020016100cf565b6101306101c93660046104b0565b610397565b6000546001600160a01b031633146102015760405162461bcd60e51b81526004016101f8906104d2565b60405180910390fd5b6001600160a01b0382166000908152600160205260408120805483929061022990849061050c565b90915550506040518181526001600160a01b038316906000907fddf252ad1be2c89b69c2b068fc378daa952ba7f163c4a11628f55a4df523b3ef906020015b60405180910390a35050565b6000546001600160a01b0316331461029e5760405162461bcd60e51b81526004016101f8906104d2565b6001600160a01b0382166000908152600160205260409020548111156102f55760405162461bcd60e51b815260206004820152600c60248201526b1a5b9cdd59999a58da595b9d60a21b60448201526064016101f8565b6001600160a01b0382166000908152600160205260408120805483929061031d908490610525565b90915550506040518181526000906001600160a01b038416907fddf252ad1be2c89b69c2b068fc378daa952ba7f163c4a11628f55a4df523b3ef90602001610268565b60405162461bcd60e51b81526020600482015260096024820152681cdbdd5b189bdd5b9960ba1b60448201526000906064016101f8565b6000546001600160a01b031633146103c15760405162461bcd60e51b81526004016101f8906104d2565b600080546040516001600160a01b03808516939216917f1cf2de25c5bf439ac0287061c3a0fa69b3b02867d0ccfd2ded34e42577050b7391a3600080546001600160a01b0319166001600160a01b0392909216919091179055565b602081526000825180602084015260005b8181101561044a576020818601810151604086840101520161042d565b506000604082850101526040601f19601f83011684010191505092915050565b80356001600160a01b038116811461048157600080fd5b919050565b6000806040838503121561049957600080fd5b6104a28361046a565b946020939093013593505050565b6000602082840312156104c257600080fd5b6104cb8261046a565b9392505050565b6020808252600a90820152693737ba1036b4b73a32b960b11b604082015260600190565b634e487b7160e01b600052601160045260246000fd5b8082018082111561051f5761051f6104f6565b92915050565b8181038181111561051f5761051f6104f656fea26469706673582212203ae3c05255d091ea8a83e488ae820b2191ceb1a93205390c2fcdd263c07e034664736f6c634300081c0033","linkReferences":{}},"methodIdentifiers":{"balanceOf(address)":"70a08231","burn(address,uint256)":"9dc29fac","decimals()":"313ce567","mint(address,uint256)":"40c10f19","minter()":"07546172","name()":"06fdde03","setMinter(address)":"fca3b5aa","symbol()":"95d89b41","transfer(address,uint256)":"a9059cbb"},"id":1}